:020000040000FA
:100000000C945C020C9484020C9484020C94840280
:100010000C9484020C9484020C9484020C94840248
:100020000C94D5090C9484020C9484020C948402E0
:100030000C9484020C9484020C9484020C94840228
:100040000C948B090C9484020C9459090C94330978
:100050000C9484020C9484020C9484020C94840208
:100060000C9484020C9484024641535400576879DE
:100070006E746572004D6167695175657374004CEB
:1000800065676F00426F7365576176650042616E08
:1000900067264F6C756673656E00536F6E790053FB
:1000A000686172700053616D73756E674C470053E1
:1000B000616D73756E6734380053616D73756E676B
:1000C0000052433600524335004B617365696B79CA
:1000D0006F5F4D697473756269736869004B617312
:1000E00065696B796F5F4A5643004B617365696B55
:1000F000796F5F5368617270004B617365696B79EA
:100100006F5F44656E6F6E004B617365696B796FED
:100110000050616E61736F6E6963004F6E6B796F33
:10012000004E454332004E4543004C4732004C4799
:10013000004A56430044656E6F6E004170706C65F6
:100140000050756C736544697374616E636500502B
:10015000756C7365576964746800554E4B4E4F5704
:100160004E0000000000240027002A0000000000CC
:10017000250028002B0000000008000201000003F9
:10018000040700000000000000002F2F20766363AA
:100190003D41352C2049525F5245433D41342C208E
:1001A000474E443D41330D0A002F2F20632D6865D3
:1001B000616465722066696C65002F2F204175743B
:1001C000686F722C207869616F6C616261002F2FFB
:1001D00020535441525420453A5C323031392D314C
:1001E000312D31315F484B5F747269705C444959FD
:1001F0005C54565C49525F72656D6F74655F6465EF
:10020000636F6465725C49525F6465636F646572B5
:100210005C49525F6465636F6465722E696E6F201E
:100220006275696C642066726F6D204E6F76203146
:100230003120323032330D0A2F2F205573696E670B
:10024000206C6962726172792076657273696F6E73
:1002500020342E312E3000496620796F7520676575
:100260007420756E6578706563746564207265735B
:10027000756C74732C2074727920746F20696E63AE
:10028000726561736520746865205245434F52441E
:100290005F4741505F4D4943524F5320696E20499B
:1002A0005272656D6F74652E682E004275742069F8
:1002B000742063616E206265204F4B20666F722050
:1002C000736F6D652079657420756E737570706FCE
:1002D000727465642070726F746F636F6C732C201E
:1002E000616E6420657370656369616C6C7920660A
:1002F0006F7220726570656174732E0020757320B3
:100300006B6E6F776E20666F7220696D706C656DB5
:10031000656E7465642070726F746F636F6C7320A8
:100320006C696B65204E45432C20536F6E792C20F1
:10033000524325206574632E2E002075732062655C
:10034000747765656E2074776F2064657465637477
:100350006564207472616E736D697373696F6E206A
:10036000697320736D616C6C6572207468616E20B6
:10037000746865206D696E696D616C2067617020BD
:100380006F6620005370616365206F662000204C0B
:10039000534220666972737400204D53422066698F
:1003A00072737400206269747300205261772D4467
:1003B0006174613D307800757300206761703D00A5
:1003C000526570656174004175746F2D0020546F23
:1003D00067676C653D3100205061726974792066F1
:1003E00061696C002045787472613D30780020436B
:1003F0006F6D6D616E643D3078002041646472659C
:1004000073733D30780020626974732028696E63CD
:100410006C2E2067617020616E6420737461727449
:100420002920726563656976656400204861736898
:100430003D3078005A014F0141013B013501310146
:100440002E012A01260121011B0111010801F900D9
:10045000EA00DD00C900C500C100B900AF00A50079
:100460009F009A008D0084007F0075006D00680079
:1004700050726F746F636F6C3D004F766572666C7F
:100480006F77000000000023002600290004040408
:10049000040404040402020202020203030303032D
:1004A000030102040810204080010204081020010A
:1004B000020408102000D50A11241FBECFEFD8E097
:1004C000DEBFCDBF24E0A2E6B2E001C01D92A6359A
:1004D000B207E1F712E0A0E0B1E0E4E9FEE202C019
:1004E00005900D92A236B107D9F712E0CCE5D2E023
:1004F00004C02197FE010E944217CB35D107C9F7EE
:100500000E942D0B0C9448170C940000E0913104CC
:10051000F0913204238534852817390728F4809117
:10052000300481608093300408950F931F93CF931C
:10053000DF93E0913104F091320440917E02828594
:1005400010E0481708F064C0142F117000917D026C
:1005500001114FC0842F90E0880F991FE80FF91FF9
:100560000384F485E02D2CEE3FEF112311F024E1FC
:1005700030E0C0917B02D0917C022C0F3D1FC9015D
:1005800063E470E00E942E17E617F70760F0C901D8
:1005900068E270E00E942E176F5F7F4F81E090E06D
:1005A0006E177F0710F52C0F3D1FC90163E470E043
:1005B0000E942E17E617F70750F0C90168E270E0B5
:1005C0000E942E176F5F7F4F6E177F0760F42C0F0E
:1005D0003D1FC90163E470E00E942E17E617F7077C
:1005E000E8F41FEF15C082E090E090937A028093C8
:1005F00079020F5F00937D028091790290917A02D7
:100600000817190628F010927D024F5F40937E0272
:10061000812FDF91CF911F910F910895C90168E259
:1006200070E00E942E176F5F7F4F6E177F07C8F232
:1006300083E090E0DACFAF92BF92CF92DF92EF9259
:10064000FF920F931F93CF93DF936C017B018B017C
:10065000040F151FEB015E01AE18BF08C017D107CC
:1006600059F06991D601ED91FC910190F081E02D56
:10067000C6010995892B79F7C501DF91CF911F91AB
:100680000F91FF90EF90DF90CF90BF90AF900895C3
:10069000FC01538D448D252F30E0842F90E0821B88
:1006A000930B541710F0CF96089501970895FC010D
:1006B000918D828D981761F0A28DAE0FBF2FB11D65
:1006C0005D968C91928D9F5F9F73928F90E00895BD
:1006D0008FEF9FEF0895FC01918D828D981731F077
:1006E000828DE80FF11D858D90E008958FEF9FEFCB
:1006F0000895FC01918D228D892F90E0805C9F4FA1
:10070000821B91098F73992708958FE792E00E94C9
:10071000790321E0892B09F420E0822F089580E0FD
:1007200090E0892B29F00E94850381110C94000030
:100730000895FC01A48DA80FB92FB11DA35ABF4F76
:100740002C91848D90E001968F739927848FA689D0
:10075000B7892C93A089B1898C91837080648C9324
:10076000938D848D981306C00288F389E02D8081D3
:100770008F7D80830895EF92FF920F931F93CF9305
:10078000DF93EC0181E0888F9B8D8C8D98131AC0CC
:10079000E889F989808185FF15C09FB7F894EE89B3
:1007A000FF896083E889F989808183708064808310
:1007B0009FBF81E090E0DF91CF911F910F91FF905B
:1007C000EF900895F62E0B8D10E00F5F1F4F0F7303
:1007D0001127E02E8C8D8E110CC00FB607FCFACFBE
:1007E000E889F989808185FFF5CFCE010E949903C0
:1007F000F1CFEB8DEC0FFD2FF11DE35AFF4FF0828F
:100800009FB7F8940B8FEA89FB8980818062CFCFF4
:100810000F931F93CF93DF938C01D0E0C0E0F801DA
:10082000EC0FFD1F6491662341F08FE792E00E9478
:10083000BB03892B11F02196F2CFCE01DF91CF912E
:100840001F910F910895682F8FE792E00C94BB03DE
:10085000CF93DF93EC01888D8823B9F0AA89BB89F7
:10086000E889F9898C9185FD03C0808186FD0DC0E2
:100870000FB607FCF7CF8C9185FFF2CF808185FF03
:10088000EDCFCE010E949903E9CFDF91CF9108957A
:1008900090E0FC01EA58FE4F2491FC01EF55FB4F1C
:1008A0003491FC01E357FB4FE491EE23C9F022237E
:1008B00039F0233001F1A8F4213019F1223029F167
:1008C000F0E0EE0FFF1FE459FE4FA591B4918FB7F2
:1008D000F894EC91611126C030953E233C938FBF74
:1008E00008952730A9F02830C9F0243049F78091C5
:1008F00080008F7D03C0809180008F77809380007F
:10090000DFCF84B58F7784BDDBCF84B58F7DFBCF00
:100910008091B0008F778093B000D2CF8091B000EB
:100920008F7DF9CF3E2BDACFCF93DF9390E0FC01A0
:10093000EF55FB4F249183579B4FFC0184918823F3
:10094000D1F090E0880F991FFC01EE59FE4FA59160
:10095000B491FC01E459FE4FC591D49161110EC0D0
:100960009FB7F8948C91E22FE0958E238C93288189
:10097000E223E8839FBFDF91CF9108958FB7F8946A
:10098000EC91E22BEC938FBFF6CFACE1B3E0119684
:100990008C931197282F30E0F901EF55FB4FE4912C
:1009A0001496EC931497F901E357FB4FE491F0E0B0
:1009B000EE0FFF1FED57FB4F2591349113963C939B
:1009C0002E93129760E00C9494043FB7F8948091B2
:1009D000670290916802A0916902B0916A0226B5FF
:1009E000A89B05C02F3F19F00196A11DB11D3FBF67
:1009F000BA2FA92F982F8827BC01CD01620F711D36
:100A0000811D911D42E0660F771F881F991F4A952F
:100A1000D1F70895089590E080E008958F929F9215
:100A2000AF92BF92CF92DF92EF92FF924B015C01A7
:100A30000E94E5046B017C0124E0C21AD108E108A0
:100A4000F1080E94E5046C197D098E099F0968155B
:100A500079058A059B05A8F3FF90EF90DF90CF9072
:100A6000BF90AF909F908F900895FC019B012451FF
:100A70003109C90163E470E00E942E17E617F707F9
:100A800058F0C90168E270E00E942E176F5F7F4F37
:100A900081E06E177F0708F480E008952F923F925F
:100AA0004F925F926F927F928F929F92AF92BF927E
:100AB000CF92DF92EF92FF920F931F93CF93DF932A
:100AC000CDB7DEB72A970FB6F894DEBF0FBECDBF05
:100AD000282E69875A013A8329833E2C9A012C5E7D
:100AE0003F4FC90163E470E00E942E1778876F833F
:100AF000C90168E270E00E942E179B012F5F3F4FF3
:100B00003E832D839985892F90E0880F991F0B963E
:100B10009A8789878091310490913204E985FA851A
:100B2000E80FF91FFA87E987412C512C32014394D1
:100B3000C12CD12C7601222009F442C029813A81AE
:100B4000E985FA85A216B306D1F40280F381E02D7F
:100B5000FC83EB83311017C0B8018B819C810E940C
:100B60003505811123C0440C551C661C771C2A9442
:100B700029853A852C5F3F4F3A872987DCCF8080D3
:100B80009180332049F0CC0CDD1CEE1CFF1C298128
:100B90003A81A216B30601F38F81988588169906CB
:100BA00010F3ED81FE81E815F905E8F2332019F024
:100BB0006894C0F8D8CFC428D528E628F728D3CF22
:100BC000C0921604D0921704E0921804F09219040F
:100BD00081E02A960FB6F894DEBF0FBECDBFDF913D
:100BE000CF911F910F91FF90EF90DF90CF90BF902A
:100BF000AF909F908F907F906F905F904F903F90BD
:100C00002F900895EF920F931F93FC01862F642F6E
:100C1000EE24E3949785911101C0E12C01851285A2
:100C200023853485478150850E944E051F910F9181
:100C3000EF9008950F931F93CF93DF93EC01E09112
:100C40003104F0913204058516852B813C812C5EA0
:100C50003F4FC90163E470E00E942E170617170783
:100C6000A0F0C90168E270E00E942E176F5F7F4F0D
:100C70006017710750F06D817E8187859089DF91C3
:100C8000CF911F910F910C94350580E0DF91CF91AA
:100C90001F910F910895CF93DF93EC0160E08E8157
:100CA0000E94480461E08E810E94480460E08E81C9
:100CB0000E9448048BE891E00197F1F7DF91CF9112
:100CC0000895CF92DF92EF92FF920F931F93CF93ED
:100CD000DF936C017C0187E0E80EF11CD0E0C0E0FE
:100CE000062F10E0B8010C2E02C0759567950A9486
:100CF000E2F76170F70181917F010E94480421961B
:100D0000C430D10579F7C601DF91CF911F910F91C2
:100D1000FF90EF90DF90CF900C944B06CF92DF9234
:100D2000EF92FF920F931F93CF93DF93EC01F62E78
:100D3000642F8C810E9448048D818F3F19F060E000
:100D40000E9448040F2D10E08F8584FF25C06E019E
:100D500087E0C80ED11CF12CE12CB8010E2C02C08A
:100D6000759567950A94E2F76170F60181916F01BC
:100D70000E944804FFEFEF1AFF0A88E0E816F1042A
:100D800061F7CE01DF91CF911F910F91FF90EF900E
:100D9000DF90CF900C944B06B80184E07595679571
:100DA0008A95E1F7CE010E9461066F2DCE01DF9199
:100DB000CF911F910F91FF90EF90DF90CF900C9407
:100DC000610640E0682F8EE394E00C948E069091CB
:100DD0005104891710F08FEF890FE82FF0E0E25CE3
:100DE000FB4F848980680C94E106CF93DF938230B7
:100DF00029F490914D04986090934D048093510490
:100E00001092520480E48093530480E18093540450
:100E100080E58093550461E0809142040E9494042F
:100E2000809143048F3F19F061E00E94940461E0D7
:100E3000809144040E949404CEE3D4E09E012E539A
:100E4000344080914D0484FD0BC084E090E02196F5
:100E50002817390744F461E08E810E949404EECF94
:100E600088E090E0F4CF8BE39DE00197F1F760E03C
:100E7000809142040E94480460E0809144040E94F2
:100E80004804809143048F3F19F060E00E944804B9
:100E900080914D0484FD39C063E08EE394E00E94AC
:100EA0006106CBE4D6E4CE010197F1F763E08EE36F
:100EB00094E00E9461062197F1F763E08EE394E0ED
:100EC0000E94610683E592E00197F1F762E08EE30C
:100ED00094E00E94610680914D0480620E94E106C8
:100EE00084E080934E048CE00E94E10681E00E9441
:100EF000E1068BE39FE10197F1F782E080934F04D5
:100F000086E0DF91CF910C94E10680620E94E106B9
:100F10008BE496E40197F1F780914D0480620E9482
:100F2000E10683E592E00197F1F780914D0480623C
:100F30000E94E106D0CF41E00E948E0681E090E061
:100F40000895E9E0F4E08AE190E09283818385E00E
:100F500090E09483838361E080810C949404809179
:100F60000704882319F060E00C9448042D98089534
:100F7000882349F080910704882319F061E00C94DC
:100F800048042D9A08950C94AF074F925F926F9288
:100F90007F928F929F92AF92BF92CF92DF92EF9209
:100FA000FF92CF93DF93CDB7DEB72D970FB6F894AE
:100FB000DEBF0FBECDBF7C010E94E50469837A834A
:100FC0008B839C834B015C011D86B0E0A0E0970100
:100FD000AD0125523109410951092D833E834F83CB
:100FE00058879701AD0127503109410951092987D7
:100FF0003A874B875C87F89461E0809109040E94EE
:10100000480480910C0490910D048230910538F0D1
:10101000880F991F880F991F05970197F1F760E0D6
:10102000809109040E94480478943D85311107C0DD
:1010300080910804823019F481E00E94B807809101
:101040000A0490910B04880E991EA11CB11CF894FF
:101050000E94E5042B013C016B0149815A81C41AAD
:10106000D50AF12CE12C8D819E81AF81B885C816FF
:10107000D906EA06FB0634F080910804823011F4A8
:101080000E94AF0729853A854B855C85C216D30639
:10109000E406F506B4F078942D960FB6F894DEBF0A
:1010A0000FBECDBFDF91CF91FF90EF90DF90CF903B
:1010B000BF90AF909F908F907F906F905F904F9078
:1010C000089531E03D87481459046A047B0408F40C
:1010D000BFCF91CF0E94A10780E891E10E94C50790
:1010E00060E871E180E090E00E940E0580E392E00C
:1010F0000E94C50760E372E080E090E00E940E0568
:1011000080E392E00C94C5070E94A10780E093E27F
:101110000E94C50760EC78E080E090E00E940E0538
:1011200080E392E00C94C507FB0101900020E9F7F1
:101130003197AF01461B570BDC01ED91FC9102800A
:10114000F381E02D0994CF93DF930E940804EC0112
:101150006EE072E08FE792E00E9494088C0F9D1F72
:10116000DF91CF9108958F929F92AF92BF92EF92AD
:10117000FF920F931F93CF93DF93CDB7DEB7A19765
:101180000FB6F894DEBF0FBECDBF7C01FA01CB01D4
:1011900019A2223008F42AE08E010F5D1F4F822E23
:1011A000912CB12CA12CBF01A50194010E94F21633
:1011B000F901CA016A300CF5605DD8016E938D01AA
:1011C000232B242B252B79F790E080E0109721F03A
:1011D000BD01C7010E949408A1960FB6F894DEBF26
:1011E0000FBECDBFDF91CF911F910F91FF90EF9078
:1011F000BF90AF909F908F900895695CDECFCF92A3
:10120000DF92EF92FF92CF93DF936C01990FEE087C
:10121000FF08F7FE19C08DE20E942304EC01442769
:101220005527BA014C195D096E097F092AE08FE73D
:1012300092E00E94B3088C0F9D1FDF91CF91FF9029
:10124000EF90DF90CF9008952AE0B701A6018FE7D5
:1012500092E0DF91CF91FF90EF90DF90CF900C94D0
:10126000B3080C9494081F920F920FB60F9211249A
:101270002F933F934F935F936F937F938F939F939E
:10128000AF93BF93EF93FF938FE792E00E94990390
:10129000FF91EF91BF91AF919F918F917F916F914E
:1012A0005F914F913F912F910F900FBE0F901F9024
:1012B00018951F920F920FB60F9211242F938F93B0
:1012C0009F93EF93FF93E0918F02F09190028081C2
:1012D000E0919502F091960282FD1BC09081809171
:1012E00098028F5F8F7320919902821741F0E091ED
:1012F0009802F0E0E158FD4F958F80939802FF919E
:10130000EF919F918F912F910F900FBE0F901F9093
:1013100018958081F4CF1F920F920FB60F9211246F
:101320002F933F938F939F93AF93BF9380916302CB
:1013300090916402A0916502B091660230916202C0
:1013400023E0230F2D3758F50196A11DB11D2093E1
:1013500062028093630290936402A0936502B0934B
:1013600066028091670290916802A0916902B09133
:101370006A020196A11DB11D8093670290936802D5
:10138000A0936902B0936A02BF91AF919F918F9130
:101390003F912F910F900FBE0F901F90189526E848
:1013A000230F0296A11DB11DD2CF1F920F920FB62F
:1013B0000F9211242F933F934F935F936F937F93DB
:1013C0008F939F93AF93BF93CF93EF93FF93E0914E
:1013D0001E03F0911F03C08180912003C8238091D8
:1013E000210390912203019649F08091210390916D
:1013F00022030196909322038093210380911C0382
:1014000081111DC0C1116EC08091210390912203F2
:101410008D38910578F010922503809121039091E9
:101420002203909328038093270381E0809326036F
:1014300080931C03109222031092210353C08091C9
:101440001C038130A9F4CC2309F44CC0E09126039D
:101450008E0F809326038091210390912203F0E068
:10146000EE0FFF1FE45EFC4F9487838782E0E0CF9E
:1014700080911C03823009F04FC0C11122C0E0915D
:10148000260381E0E03768F08093250383E08093B2
:101490001C03E0912303F0912403309759F209953E
:1014A000C9CF8E0F80932603809121039091220350
:1014B000F0E0EE0FFF1FE45EFC4F9487838781E02E
:1014C000B7CF80912103909122038D38910550F080
:1014D00083E080931C03E0912303F0912403309771
:1014E00009F0099580910804813021F4C11180E050
:1014F0000E94B807FF91EF91CF91BF91AF919F915B
:101500008F917F916F915F914F913F912F910F90AC
:101510000FBE0F901F90189580911C03833011F718
:10152000C111E0CF87CFEF92FF920F931F93CF931C
:10153000DF93EC01F62F8A01790190E080E030E042
:10154000E0E0DE01AE0FB11D2C91222341F0320FFD
:101550002E9F800D911D11241C92FE1315C0332364
:1015600099F0532F5695850F911D632F70E00E94BF
:101570002E17DE01A60FB11D3C93D8013C9131110D
:101580000EC06C9390E080E0EF5FFE17D0F681E034
:10159000DF91CF911F910F91FF90EF900895D701A8
:1015A0003C91332371F380E0F3CFEFE7F2E0138255
:1015B000128288EE93E0A0E0B0E084839583A68356
:1015C000B78384EF91E09183808385EC90E09587E9
:1015D000848784EC90E09787868780EC90E0918BFD
:1015E000808B81EC90E0938B828B82EC90E0958BEA
:1015F000848B86EC90E0978B868B118E128E138EE7
:10160000148EEEE3F4E01382128286E092E091837E
:10161000808388E084838FEF858389E0868384E0FC
:10162000878385E0808786E0818787E082871386CD
:10163000148615861686178681E00E94F5068CE1D1
:1016400093E0909332048093310480E00E94C504BB
:1016500010920704109209040895CF93DF93CDB739
:10166000DEB7E7970FB6F894DEBF0FBECDBF789414
:1016700084B5826084BD84B5816084BD85B5826097
:1016800085BD85B5816085BD80916E008160809348
:101690006E001092810080918100826080938100B1
:1016A00080918100816080938100809180008160C1
:1016B000809380008091B10084608093B10080911C
:1016C000B00081608093B00080917A008460809344
:1016D0007A0080917A00826080937A0080917A000B
:1016E000816080937A0080917A00806880937A008C
:1016F0001092C10061E083E10E94940461E081E105
:101700000E94940461E083E10E94480460E081E16A
:101710000E94480482E00E94F50661E172E08EE3D7
:1017200094E00E94310981E00E94E70662E272E0E3
:101730008EE394E00E943109E0918F02F0919002D3
:1017400012E01083E0918B02F0918C021082E09104
:101750008D02F0918E0280E1808310929702E091D9
:101760009302F091940286E08083E0919102F091DF
:101770009202808180618083E0919102F0919202D7
:10178000808188608083E0919102F0919202808153
:1017900080688083E0919102F091920280818F7D38
:1017A00080838EEC91E00E94A3088AEB91E00E9476
:1017B000A30889EA91E00E94A3088AE891E00E94C8
:1017C000A30882E10E94C5041092070480910804D6
:1017D000816080930804259A1093B0001093B100A3
:1017E00084E68093B3008093B4001092B20080919D
:1017F0001C03833011F410921C0384E0809370006A
:1018000080910704909108049160909308048823C4
:1018100009F46AC061E00E9494049E012F5F3F4F6B
:10182000390180911C03833011F00C94C115809113
:101830002503882309F45AC080E480933004109271
:101840000F0410920E0410921304109212041092BE
:1018500011041092100410921604109217041092A2
:1018600018041092190410922F0410922E048091E3
:10187000300486FDD0C1E0913104F091320422851C
:10188000822F8F7B843009F0BDC085859685865870
:1018900091098C35910508F0B5C087859089243071
:1018A00009F04BC08197489708F0ACC081899289B4
:1018B0000897089708F0A6C081E0809330048091D3
:1018C0003504909136049093110480931004809114
:1018D000390490913A0490931304809312048091F8
:1018E00033049091340466C0259A97CF1092300447
:1018F00080910E0490910F049093340480933304EC
:101900008091120490911304B0E0A0E08093390418
:1019100090933A04A0933B04B0933C04809110044C
:1019200090911104B0E0A0E08093350490933604C8
:10193000A0933704B093380482CF825491098F97D3
:1019400008F060C043E060E28CED91E00E94020686
:10195000882309F457C020911604909117046091D0
:10196000180480911904462F50E0509313044093BB
:101970001204422F592F4E3E37E8530701F523E05A
:1019800030E030930F0420930E0490E09093110404
:101990008093100480E290E090932F0480932E04B3
:1019A0008AE795E00E9486028091300480FF33C16F
:1019B00089E090E090930F0480930E042CC19095E1
:1019C000291310C030E03093110420931004982F95
:1019D000909569130CC088E090E090930F04809379
:1019E0000E04D8CF5093110440931004F0CF2AE096
:1019F00030E030930F0420930E0460931204809320
:101A00001304C8CFE0913104F0913204828584360A
:101A100009F08FC088EC91E00E941A06882309F42F
:101A200088C043E060E188EC91E00E9402068823D0
:101A300009F47FC0F09016040F2D10911704BBE03D
:101A4000CB2ED12C023050E21507F9F0AEE0CA2EB1
:101A5000D12C0A3A8AE51807C1F0FDE0CF2ED12C2F
:101A6000043592E3190789F0EFE0CE2ED12C033034
:101A7000E1E01E0751F080E1C82ED12C0332FBECCF
:101A80001F0719F07CE0C72ED12C43E260E288ECFE
:101A900091E00E940206882309F44BC0F126809150
:101AA000160490911704A0911804B09119049C0198
:101AB00064E0369527956A95E1F7309311042093F9
:101AC00010042A2F30E03093130420931204382F8F
:101AD0003A2739272F2D22952F702F252F70482F29
:101AE0004F70241719F024E0209330042CE0C21624
:101AF000D10449F4209130042061209330041093E4
:101B00001504009314043B1729F08091300484607D
:101B10008093300480E390E090932F0480932E0410
:101B2000D0920F04C0920E048AE397E00E948602CE
:101B300072C0E0913104F09132048285803209F064
:101B4000BBC041E06FE084EB91E00E940206882375
:101B500009F4B2C0E0913104F0913204DF01A75BD7
:101B6000BF4F8D919C910497059708F0A5C0809177
:101B7000160490911704A0911804B09119049C01C7
:101B80002F713327309311042093100455E0B6953C
:101B9000A795979587955A95D1F7492F43709C0142
:101BA000332730931304209312042385348525367C
:101BB000344008F079C020913D042F5F20933D040C
:101BC000223018F021E02093300490FF14C02091BF
:101BD0003004322F32603093300430913904509108
:101BE0003A048095831719F02660209330043093CF
:101BF0001204509313044150423008F05AC086E159
:101C000090E090930F0480930E048FE090E0909307
:101C10002F0480932E044091160450911704609174
:101C200018047091190440937502509376026093E2
:101C30007702709378028091710290917202A09164
:101C40007302B0917402481759076A077B0709F4B9
:101C500092C7411551056105710509F48CC7409380
:101C6000710250937202609373027093740221E2C6
:101C700030E080E090E0DC012150310909F4EBC54F
:101C8000880F991FAA1FBB1F6A017B01F1E0CF22B9
:101C9000DD24EE24FF248C299D29AE29BF297695C9
:101CA000679557954795E8CF10923D04423009F467
:101CB000A6CF84E090E0A5CF80EA91E00E941A06CA
:101CC000882309F44EC0E0913104F09132048285FA
:101CD0008A3129F08A3219F0803209F042C090E04E
:101CE000BC016150710977FDBC017595679543E0B2
:101CF00080EA91E00E940206882399F180911604FF
:101D000090911704A0911804B09119049C012F77A9
:101D10003327309313042093120437E0B695A79528
:101D2000979587953A95D1F7909311048093100475
:101D3000E0913104F0913204228530E0C90101972D
:101D400097FDC9019595879590932F0480932E0454
:101D500087E190E090930F0480930E0480EE91E071
:101D6000E5CE81E080937E0289E793E090937C0248
:101D700080937B0210927D020E949502813009F0CF
:101D800066C0C12CD12C760110E0E0913104F091B5
:101D90003204928580917E028917E0F40E949502B8
:101DA000082F0E94950201110BC0813009F04FC02D
:101DB000CC0CDD1CEE1CFF1C6894C0F81F5FE5CF47
:101DC000013009F044C0811142C0CC0CDD1CEE1C76
:101DD000FF1CF4CF812F90E090932F0480932E046A
:101DE000C0921604D0921704E0921804F0921904DD
:101DF0008C2D8F7390E090931304809312049601BE
:101E000016E0369527951A95E1F72F713327309311
:101E1000110420931004960122273071232B31F4F2
:101E2000805C9F4F909313048093120480E880930A
:101E30003004D3FE03C088E88093300481E190E051
:101E400090930F0480930E048FEC99E06FCEE09195
:101E50003104F09132048585968588974D9708F076
:101E600046C0878590890C970B9708F040C083E0A7
:101E700080937E028CEB91E090937C0280937B02B6
:101E800010927D020E949502813089F50E94950290
:101E900081112DC0C12CD12C760110E0E0913104CC
:101EA000F0913204928580917E02891708F082C0F9
:101EB0000E949502B82E1330B1F00E949502082FAF
:101EC000133021F40E949502081311C091E0B91259
:101ED00067C001110CC0CC0CDD1CEE1CFF1C68940B
:101EE000C0F81F5FDBCF0E949502B81631F3E09176
:101EF0003104F091320422852C3311F0243099F40E
:101F0000858596858638910570F0833E910508F4A5
:101F100097C08E58910968EB7BE007E010E08236AD
:101F2000910508F491C0E0913104F091320482856A
:101F3000823209F4EEC0843209F015C184E191E0E7
:101F40000E941A06882309F40EC143E060E184E18F
:101F500091E00E940206882309F405C180911604CD
:101F600090911704A0911804B0911904492F5A2F89
:101F70006B2F772750931304409312049927909363
:101F800011048093100480E190E090932F048093DB
:101F90002E04E5E0F0E0F0930F04E0930E043BCE56
:101FA000B110A5CF013009F0A2CFCC0CDD1CEE1C86
:101FB000FF1C97CF812F90E090932F0480932E04E5
:101FC000C0921604D0921704E0921804F0921904FB
:101FD0002C2D30E08D2D143200F580E880933004F4
:101FE00030931304209312048D2D90E090931104EC
:101FF00080931004E0FE03C088E88093300415311C
:1020000028F08091300480618093300483E79AE067
:102010000E94860282E190E0CDCC90E8909330045B
:10202000D7FE03C098E890933004309313042093B4
:1020300012048F7790E09093110480931004E6CF00
:1020400068E670E106E010E087859089243061F44D
:102050004D97469708F067CF81899289079708972F
:1020600008F061CF81E829CC0E943505882309F466
:102070005ACF43E06CE180E091E00E9402068823A1
:1020800009F451CF80E88093300480911604909138
:102090001704A0911804B0911904AC01BD01E4E04B
:1020A0007695679557954795EA95D1F79A0150939C
:1020B000130440931204AC01BD01F4E176956795D9
:1020C00057954795FA95D1F7509311044093100412
:1020D00044E050E060E0722F7F70670F74E0369547
:1020E00027957A95E1F741505109A9F786278F7016
:1020F0009927AA27BB27892B8A2B8B2B19F084E8D9
:102100008093300410930F0400930E048CE190E050
:102110007ECD838594858C3E9C4508F07CCD85855D
:1021200096850897079708F076CDE35BFF4F80818F
:1021300091810897079708F06ECD81E08093300475
:10214000809135049091360490931104809310048B
:102150008091390490913A0490931304809312046F
:1021600085E090E027CCE0913104F09132041285B3
:10217000812F8F7D843419F0163009F07EC088E2FB
:1021800091E00E941A06882309F477C01630B1F452
:1021900081E08093300480913504909136049093CF
:1021A0001104809310048091390490913A04909323
:1021B00013048093120485E190E0FCCB43E060E2DD
:1021C00088E291E00E940206882309F456C010912B
:1021D00018040091190490911604809117049093AB
:1021E000100480931104E0913104F091320482854F
:1021F000843651F543E460E188E291E00E940206F2
:102200008823D9F180911604909117040095101736
:1022100031F09095981719F094E090933004982F2E
:10222000812F909313048093120480E390E09093A5
:102230002F0480932E0484E190E090930F04809308
:102240000E048FE595E072CC802F809518130FC097
:10225000812F90E0909313048093120480E290E029
:1022600090932F0480932E0483E190E0E6CFC80181
:102270009093120480931304F1CFE0913104F09114
:1022800032048285843279F58CE391E00E941A064B
:10229000882349F143E060E18CE391E00E9402066B
:1022A000882309F11091160480911704809518175E
:1022B00019F084E0809330048DE692E00E9486025B
:1022C000812F90E0909313048093120410921104D4
:1022D0001092100480E190E090932F0480932E04DC
:1022E0008DE190E067CBE0913104F091320482857A
:1022F0008434D1F480E591E00E941A068823A1F08D
:1023000043E060E280E591E00E940206882361F0EC
:1023100080E88093300480E290E090932F048093D3
:102320002E048CE190E046CB84E691E00E941A06F0
:10233000E0913104F09132049285882309F455C06C
:10234000943209F052C043E060E184E691E00E94DB
:102350000206882309F449C0E0913104F091320467
:10236000DF01AF5ABF4F8D919C9102970497E8F51A
:1023700080E8809330043091160420911704832F55
:10238000922F422F42954F702F70A4E0969587951B
:10239000AA95E1F78F703F709FE0942792279827C6
:1023A000391719F094E89093300463857485683F79
:1023B000714128F4909130049260909330044093DE
:1023C00010041092110450E1259F90011124282B34
:1023D000309313042093120480E190E090932F0433
:1023E00080932E048AE190E0E5CA88E791E00E949C
:1023F0001A06E0913104F09132049285882381F12C
:10240000943271F543E060E188E791E00E940206B2
:10241000882331F1E0913104F0913204EF5AFF4FFB
:102420008081918108970797D8F480911604909144
:10243000170498279F3FA1F490E090931304809392
:10244000120480E190E090932F0480932E0489E1A0
:1024500090E090930F0480930E0488ED94E066CB97
:10246000E0913104F09132048285803709F059C03F
:1024700041E068E08CE891E00E940206882309F4BC
:1024800050C08091160490911704A0911804B09147
:102490001904892B8A2B8B2B09F043C041E16FE192
:1024A0008CE891E00E9402068823D9F1C0901604BE
:1024B000D0901704E0901804F09019044FE461E103
:1024C0008CE891E00E940206882359F1909117044C
:1024D0008091180489279827892790931304809363
:1024E0001204C0921604D0921704E0921804F092DD
:1024F0001904D0921104C0921004F0921504E092D5
:1025000014048BE190E090930F0480930E0488E311
:1025100090E090932F0480932E0480E88093300401
:102520007ACBA0913104B09132041A968C911A970B
:10253000843108F429C182E3F30111928A95E9F705
:102540001A962C911A972250330B60E043E0842FA7
:1025500090E082179307BCF4880F991FFD01E80FE4
:10256000F91F838594858233910508F00DC1F3012D
:10257000E80FF91F50815F5F50836817190608F450
:10258000682F4E5FE4CF1EAA1DAA9E012B5C3F4F11
:10259000AE014A5C5F4FC3010E94930A882309F48D
:1025A000F3C082E3F30111928A95E9F7A091310417
:1025B000B09132041A962C911A972250330B60E096
:1025C00044E0842F90E082179307BCF4880F991F92
:1025D000FD01E80FF91F838594858233910508F08A
:1025E000D3C0F301E80FF91F50815F5F5083681774
:1025F000190608F4682F4E5FE4CF1CAA1BAA9E019F
:102600002D5C3F4FAE014C5C5F4FC3010E94930AAB
:10261000882309F4B9C0E0913104F0913204828535
:1026200086958150990BCBA88DA89C01215031092A
:10263000CC2019F0811001C0C90190932F04809320
:102640002E049C012150310995E0369527959A95E5
:10265000E1F72FAB811003C0CC2009F495C04CA842
:1026600092E3499E20011124AEA8A99E5001112495
:10267000899E40011124C99E60011124F82E83E037
:10268000282E312C8F2DF0E2FF1508F480E29DA951
:10269000992309F465C021E030E030930F042093C2
:1026A0000E04E12C82019501A401622D0E944E05C9
:1026B000882309F469C024E0329EF0011124EA5D08
:1026C000FB4F8091160490911704A0911804B091CB
:1026D000190480839183A283B38330E4230E33945F
:1026E00050EEF50E8FA9831568F680ED97E00E94F5
:1026F0008602E0913104F09132044585568582E3EB
:10270000849F9001859F300D112430931B042093EA
:102710001A0447855089849F9001859F300D1124AC
:1027200030931D0420931C04B0922304A092220431
:10273000509225044092240481149104E1F0909277
:102740001F0480921E045092210440922004C11460
:10275000D10409F460CAD0922504C09224045BCA53
:10276000E2E0F0E0F0930F04E0930E04E12C860128
:102770009501A5019ACFB0921F04A0921E04D09299
:102780002104C092200447CAA0903104B0903204C2
:10279000F5018285863008F43ECA11E025EC3DE95A
:1027A0004CE151E8C82ED12C0AE0812F90E0BC0109
:1027B0006E5F7F4F6C157D05DCF5660F771FF501A9
:1027C000E60FF71F63857485880F991FF501E80FE1
:1027D000F91F83859485069FD001079FB00D1124B2
:1027E000FC01EE0FFF1FEE0FFF1FEE0FFF1FAE17D6
:1027F000BF07D0F0089FF001099FF00D1124CB0115
:10280000A3E0880F991FAA95E1F7E817F90770F47C
:10281000E2E063E971E080E091E00E94E2169B0152
:10282000AC012E271F5FC1CFE0E0F3CFE1E0F1CF95
:1028300020931604309317044093180450931904FE
:1028400080E290E090932F0480932E0410920F0466
:1028500010920E04E0C980936B0290936C02A093D7
:102860006D02B0936E0240937502509376026093AE
:1028700077027093780280916F02909170020196B6
:102880009093700280936F0263E372E08FE792E0AF
:102890000E94310980916F02909170020A9730F482
:1028A00067E472E08FE792E00E94310980916F0245
:1028B000909170020A978A35910530F468E472E0CD
:1028C0008FE792E00E94310980916F02909170022F
:1028D000845691098438934030F469E472E08FE7BC
:1028E00092E00E94310940916F025091700270E0B5
:1028F00060E02AE08FE792E00E94B30860E472E0B3
:102900008FE792E00E94310980916B0290916C02F6
:10291000A0916D02B0916E020097A105B14030F414
:1029200068E472E08FE792E00E94310980916B02C7
:1029300090916C02A0916D02B0916E020097A1403F
:10294000B10530F466E472E08FE792E00E9431094D
:1029500080916B0290916C02A0916D02B0916E0219
:102960008F3F9105A105B10509F030F464E472E0F0
:102970008FE792E00E94310940916B0250916C0206
:1029800060916D0270916E0220E18FE792E00E94EB
:10299000B3086BE472E08FE792E00E943109809106
:1029A000300486FF22C18AE794E00E94A308809148
:1029B0000E0490910F04009709F440C00397F4F5BA
:1029C000E0913104F0913204838594858C329140FA
:1029D000A8F56EE072E08FE792E00E94940884E828
:1029E00093E00E940804E0913104F09132042385C1
:1029F0003485A2E3B0E00E941F17AB01BC012AE0BE
:102A00008FE792E00E94B3088AE393E00E940804F3
:102A100088E99AE30E94FF088CEF92E00E94A308E5
:102A20008BEA92E00E94A30887E592E00E94A30847
:102A30006EE072E08FE792E00E94940880E00E94CE
:102A4000E70660E572E08EE394E00E94310980E0E1
:102A50000E94E7066BE372E08EE394E00E94310986
:102A600080916F02909170020A9730F467E472E0EF
:102A70008EE394E00E94310980916F029091700280
:102A80000A978A35910530F468E472E08EE394E0A9
:102A90000E94310980916F029091700284569109D1
:102AA0008438934030F469E472E08EE394E00E944D
:102AB000310940916F025091700270E060E02AE0AD
:102AC0008EE394E00E94B30881E00E94E70660E58F
:102AD00072E08EE394E00E94310981E00E94E706F3
:102AE00061E472E08EE394E00E94310980916B0210
:102AF00090916C02A0916D02B0916E020097A105B9
:102B0000B14030F468E472E08EE394E00E94310951
:102B100080916B0290916C02A0916D02B0916E0257
:102B20000097A140B10530F466E472E08EE394E0D2
:102B30000E94310980916B0290916C02A0916D020C
:102B4000B0916E028F3F9105A105B10509F030F4F7
:102B500064E472E08EE394E00E94310940916B02DC
:102B600050916C0260916D0270916E0220E18EE3D3
:102B700094E00E94B30880911C03833011F41092FA
:102B80001C030E94E5046B017C0184E6882E912CD5
:102B9000A12CB12C0E94E5046C197D098E099F09B6
:102BA000683E734081059105A8F351E0851A9108AC
:102BB000A108B10888EEC80E83E0D81EE11CF11C04
:102BC00081149104A104B10429F780E090E0892BDD
:102BD00011F40C94110C0E948503882311F40C94B9
:102BE000110C0E9400000C94110C80E794E00E94EC
:102BF0000804E0910E04F0910F04EE0FFF1FEC5C4F
:102C0000FB4F859194910E94080480910E0490914D
:102C10000F04009711F58BE294E00E9408044091A4
:102C2000160450911704609118047091190420E162
:102C30008FE792E00E94B30880E20E942304E091B3
:102C40003104F0913204828590E001969695879543
:102C50000E94FF0886E094E0A8CE0197029708F44E
:102C600041C08AEF93E00E94080440911004509103
:102C7000110470E060E020E18FE792E00E94B30869
:102C80008EEE93E00E9408044091120450911304C8
:102C900070E060E020E18FE792E00E94B30880914D
:102CA000300484FF0FC084EE93E00E94080440913A
:102CB00014045091150470E060E020E18FE792E089
:102CC0000E94B3088091300482FF04C087ED93E036
:102CD0000E9408048091300483FF04C08DEC93E0CF
:102CE0000E94080480913004837041F180E20E94C8
:102CF00023048091300481FF04C087EC93E00E949C
:102D0000080480EC93E00E9408048AEB93E00E94A0
:102D10000804E0913104F091320423853485A2E364
:102D2000B0E00E941F17AB01BC012AE08FE792E0E0
:102D30000E94B30887EB93E00E940804809130045E
:102D400080FF0CC08091160490911704A091180484
:102D5000B0911904892B8A2B8B2B69F18AEA93E0B5
:102D60000E940804409116045091170460911804C1
:102D70007091190420E18FE792E00E94B30880E28D
:102D80000E94230440912E0450912F0470E060E0D3
:102D90002AE08FE792E00E94B30884EA93E00E9461
:102DA00008048091300487FF03C089E993E0FDCDDA
:102DB0008EE893E0FACD6EE072E08FE792E00E9439
:102DC0009408F5CDDB018F939F930E941417BF9158
:102DD000AF91A29F800D911DA39F900DB29F900D6A
:102DE00011240895A1E21A2EAA1BBB1BFD010DC0E0
:102DF000AA1FBB1FEE1FFF1FA217B307E407F507AB
:102E000020F0A21BB30BE40BF50B661F771F881F86
:102E1000991F1A9469F760957095809590959B011C
:102E2000AC01BD01CF0108950E941F17A59F900D11
:102E3000B49F900DA49F800D911D11240895A29F11
:102E4000B001B39FC001A39F700D811D1124911D7E
:102E5000B29F700D811D1124911D0895AA1BBB1BEB
:102E600051E107C0AA1FBB1FA617B70710F0A61B8A
:102E7000B70B881F991F5A95A9F780959095BC01AB
:102E8000CD010895EE0FFF1F0590F491E02D0994F8
:102E9000F894FFCF06002628236810F4012C06F4CE
:102EA000012602806E008408050026E02070100EC6
:102EB000022A060E020E02004100000013002680C6
:102EC0001180113002900630023002006E006A0854
:102ED0001D002638081C040E022A060E020E0200EF
:102EE000320000001C0026220B220BEE026608EEC8
:102EF00002EE02806E0000001A00269E0002049E70
:102F00000029029E000701006E000000190026F64D
:102F100003BC050802BC050802D401004B000000F8
:102F20001B00261F015D033E023E021F015D038060
:102F30006E00000017002860095802B004580258BB
:102F4000025802002D00000004002604010C0304B6
:102F5000011C0704010C03006E0000000C0025801A
:102F60000DC006B0011005B001B0010082000000E4
:102F70000800260023801130029006300230020043
:102F80006E00840800000000BB031B0348032804F4
:102F9000790357036B03000000009B071B030B051D
:102FA0000A050D0A00497252656D6F7465206465EB
:102FB000636F646572004E454333384B2020786957
:102FC000616F6C6162610023646566696E65206B88
:102FD00065795F00203078003030303030300020AC
:102FE0002F2F2000202020202020202020202020E3
:062FF0002020202000005B
:107E0000112484B714BE81FFF0D085E080938100F7
:107E100082E08093C00088E18093C10086E0809377
:107E2000C20080E18093C4008EE0C9D0259A86E02C
:107E300020E33CEF91E0309385002093840096BBD3
:107E4000B09BFECF1D9AA8958150A9F7CC24DD24C4
:107E500088248394B5E0AB2EA1E19A2EF3E0BF2EE7
:107E6000A2D0813461F49FD0082FAFD0023811F036
:107E7000013811F484E001C083E08DD089C08234E0
:107E800011F484E103C0853419F485E0A6D080C0E4
:107E9000853579F488D0E82EFF2485D0082F10E0AE
:107EA000102F00270E291F29000F111F8ED06801E7
:107EB0006FC0863521F484E090D080E0DECF843638
:107EC00009F040C070D06FD0082F6DD080E0C81688
:107ED00080E7D80618F4F601B7BEE895C0E0D1E017
:107EE00062D089930C17E1F7F0E0CF16F0E7DF06D8
:107EF00018F0F601B7BEE89568D007B600FCFDCFD4
:107F0000A601A0E0B1E02C9130E011968C91119780
:107F100090E0982F8827822B932B1296FA010C0160
:107F200087BEE89511244E5F5F4FF1E0A038BF0790
:107F300051F7F601A7BEE89507B600FCFDCF97BE46
:107F4000E89526C08437B1F42ED02DD0F82E2BD052
:107F50003CD0F601EF2C8F010F5F1F4F84911BD097
:107F6000EA94F801C1F70894C11CD11CFA94CF0C13
:107F7000D11C0EC0853739F428D08EE10CD085E9AC
:107F80000AD08FE07ACF813511F488E018D01DD067
:107F900080E101D065CF982F8091C00085FFFCCF94
:107FA0009093C60008958091C00087FFFCCF809118
:107FB000C00084FD01C0A8958091C6000895E0E648
:107FC000F0E098E1908380830895EDDF803219F02E
:107FD00088E0F5DFFFCF84E1DECF1F93182FE3DFCA
:107FE0001150E9F7F2DF1F91089580E0E8DFEE27F6
:047FF000FF270994CA
:027FFE00040479
:00000001FF
