:100000000C945C020C9484020C9484020C94840280
:100010000C9484020C9484020C9484020C94840248
:100020000C94D5090C9484020C9484020C948402E0
:100030000C9484020C9484020C9484020C94840228
:100040000C948B090C9484020C9459090C94330978
:100050000C9484020C9484020C9484020C94840208
:100060000C9484020C9484024641535400576879DE
:100070006E746572004D6167695175657374004CEB
:1000800065676F00426F7365576176650042616E08
:1000900067264F6C756673656E00536F6E790053FB
:1000A000686172700053616D73756E674C470053E1
:1000B000616D73756E6734380053616D73756E676B
:1000C0000052433600524335004B617365696B79CA
:1000D0006F5F4D697473756269736869004B617312
:1000E00065696B796F5F4A5643004B617365696B55
:1000F000796F5F5368617270004B617365696B79EA
:100100006F5F44656E6F6E004B617365696B796FED
:100110000050616E61736F6E6963004F6E6B796F33
:10012000004E454332004E4543004C4732004C4799
:10013000004A56430044656E6F6E004170706C65F6
:100140000050756C736544697374616E636500502B
:10015000756C7365576964746800554E4B4E4F5704
:100160004E0000000000240027002A0000000000CC
:10017000250028002B0000000008000201000003F9
:10018000040700000000000000002F2F20766363AA
:100190003D41352C2049525F5245433D41342C208E
:1001A000474E443D41330D0A002F2F20632D6865D3
:1001B000616465722066696C65002F2F204175743B
:1001C000686F722C207869616F6C616261002F2FFB
:1001D00020535441525420453A5C323031392D314C
:1001E000312D31315F484B5F747269705C444959FD
:1001F0005C54565C49525F72656D6F74655F6465EF
:10020000636F6465725C49525F6465636F646572B5
:100210005C49525F6465636F6465722E696E6F201E
:100220006275696C642066726F6D204E6F76203146
:100230003020323032330D0A2F2F205573696E670C
:10024000206C6962726172792076657273696F6E73
:1002500020342E312E3000496620796F7520676575
:100260007420756E6578706563746564207265735B
:10027000756C74732C2074727920746F20696E63AE
:10028000726561736520746865205245434F52441E
:100290005F4741505F4D4943524F5320696E20499B
:1002A0005272656D6F74652E682E004275742069F8
:1002B000742063616E206265204F4B20666F722050
:1002C000736F6D652079657420756E737570706FCE
:1002D000727465642070726F746F636F6C732C201E
:1002E000616E6420657370656369616C6C7920660A
:1002F0006F7220726570656174732E0020757320B3
:100300006B6E6F776E20666F7220696D706C656DB5
:10031000656E7465642070726F746F636F6C7320A8
:100320006C696B65204E45432C20536F6E792C20F1
:10033000524325206574632E2E002075732062655C
:10034000747765656E2074776F2064657465637477
:100350006564207472616E736D697373696F6E206A
:10036000697320736D616C6C6572207468616E20B6
:10037000746865206D696E696D616C2067617020BD
:100380006F6620005370616365206F662000204C0B
:10039000534220666972737400204D53422066698F
:1003A00072737400206269747300205261772D4467
:1003B0006174613D307800757300206761703D00A5
:1003C000526570656174004175746F2D0020546F23
:1003D00067676C653D3100205061726974792066F1
:1003E00061696C002045787472613D30780020436B
:1003F0006F6D6D616E643D3078002041646472659C
:1004000073733D30780020626974732028696E63CD
:100410006C2E2067617020616E6420737461727449
:100420002920726563656976656400204861736898
:100430003D3078005A014F0141013B013501310146
:100440002E012A01260121011B0111010801F900D9
:10045000EA00DD00C900C500C100B900AF00A50079
:100460009F009A008D0084007F0075006D00680079
:1004700050726F746F636F6C3D004F766572666C7F
:100480006F77000000000023002600290004040408
:10049000040404040402020202020203030303032D
:1004A000030102040810204080010204081020010A
:1004B000020408102000D50A11241FBECFEFD8E097
:1004C000DEBFCDBF24E0A6E6B2E001C01D92AA3592
:1004D000B207E1F712E0A0E0B1E0E4E2FEE202C020
:1004E00005900D92A636B107D9F712E0CCE5D2E01F
:1004F00004C02197FE010E940A17CB35D107C9F726
:100500000E942D0B0C9410170C940000E091350400
:10051000F0913604238534852817390728F4809113
:10052000340481608093340408950F931F93CF9314
:10053000DF93E0913504F091360440918202828588
:1005400010E0481708F064C0142F11700091810268
:1005500001114FC0842F90E0880F991FE80FF91FF9
:100560000384F485E02D2CEE3FEF112311F024E1FC
:1005700030E0C0917F02D09180022C0F3D1FC90155
:1005800063E470E00E94F616E617F70760F0C90111
:1005900068E270E00E94F6166F5F7F4F81E090E0A6
:1005A0006E177F0710F52C0F3D1FC90163E470E043
:1005B0000E94F616E617F70750F0C90168E270E0EE
:1005C0000E94F6166F5F7F4F6E177F0760F42C0F47
:1005D0003D1FC90163E470E00E94F616E617F707B5
:1005E000E8F41FEF15C082E090E090937E028093C4
:1005F0007D020F5F0093810280917D0290917E02C7
:100600000817190628F0109281024F5F409382026A
:10061000812FDF91CF911F910F910895C90168E259
:1006200070E00E94F6166F5F7F4F6E177F07C8F26B
:1006300083E090E0DACFAF92BF92CF92DF92EF9259
:10064000FF920F931F93CF93DF936C017B018B017C
:10065000040F151FEB015E01AE18BF08C017D107CC
:1006600059F06991D601ED91FC910190F081E02D56
:10067000C6010995892B79F7C501DF91CF911F91AB
:100680000F91FF90EF90DF90CF90BF90AF900895C3
:10069000FC01538D448D252F30E0842F90E0821B88
:1006A000930B541710F0CF96089501970895FC010D
:1006B000918D828D981761F0A28DAE0FBF2FB11D65
:1006C0005D968C91928D9F5F9F73928F90E00895BD
:1006D0008FEF9FEF0895FC01918D828D981731F077
:1006E000828DE80FF11D858D90E008958FEF9FEFCB
:1006F0000895FC01918D228D892F90E0805C9F4FA1
:10070000821B91098F739927089583E892E00E94D4
:10071000790321E0892B09F420E0822F089580E0FD
:1007200090E0892B29F00E94850381110C94000030
:100730000895FC01A48DA80FB92FB11DA35ABF4F76
:100740002C91848D90E001968F739927848FA689D0
:10075000B7892C93A089B1898C91837080648C9324
:10076000938D848D981306C00288F389E02D8081D3
:100770008F7D80830895EF92FF920F931F93CF9305
:10078000DF93EC0181E0888F9B8D8C8D98131AC0CC
:10079000E889F989808185FF15C09FB7F894EE89B3
:1007A000FF896083E889F989808183708064808310
:1007B0009FBF81E090E0DF91CF911F910F91FF905B
:1007C000EF900895F62E0B8D10E00F5F1F4F0F7303
:1007D0001127E02E8C8D8E110CC00FB607FCFACFBE
:1007E000E889F989808185FFF5CFCE010E949903C0
:1007F000F1CFEB8DEC0FFD2FF11DE35AFF4FF0828F
:100800009FB7F8940B8FEA89FB8980818062CFCFF4
:100810000F931F93CF93DF938C01D0E0C0E0F801DA
:10082000EC0FFD1F6491662341F083E892E00E9483
:10083000BB03892B11F02196F2CFCE01DF91CF912E
:100840001F910F910895682F83E892E00C94BB03E9
:10085000CF93DF93EC01888D8823B9F0AA89BB89F7
:10086000E889F9898C9185FD03C0808186FD0DC0E2
:100870000FB607FCF7CF8C9185FFF2CF808185FF03
:10088000EDCFCE010E949903E9CFDF91CF9108957A
:1008900090E0FC01EA58FE4F2491FC01EF55FB4F1C
:1008A0003491FC01E357FB4FE491EE23C9F022237E
:1008B00039F0233001F1A8F4213019F1223029F167
:1008C000F0E0EE0FFF1FE459FE4FA591B4918FB7F2
:1008D000F894EC91611126C030953E233C938FBF74
:1008E00008952730A9F02830C9F0243049F78091C5
:1008F00080008F7D03C0809180008F77809380007F
:10090000DFCF84B58F7784BDDBCF84B58F7DFBCF00
:100910008091B0008F778093B000D2CF8091B000EB
:100920008F7DF9CF3E2BDACFCF93DF9390E0FC01A0
:10093000EF55FB4F249183579B4FFC0184918823F3
:10094000D1F090E0880F991FFC01EE59FE4FA59160
:10095000B491FC01E459FE4FC591D49161110EC0D0
:100960009FB7F8948C91E22FE0958E238C93288189
:10097000E223E8839FBFDF91CF9108958FB7F8946A
:10098000EC91E22BEC938FBFF6CFA0E2B3E011968F
:100990008C931197282F30E0F901EF55FB4FE4912C
:1009A0001496EC931497F901E357FB4FE491F0E0B0
:1009B000EE0FFF1FED57FB4F2591349113963C939B
:1009C0002E93129760E00C9494043FB7F8948091B2
:1009D0006B0290916C02A0916D02B0916E0226B5EF
:1009E000A89B05C02F3F19F00196A11DB11D3FBF67
:1009F000BA2FA92F982F8827BC01CD01620F711D36
:100A0000811D911D42E0660F771F881F991F4A952F
:100A1000D1F70895089590E080E008958F929F9215
:100A2000AF92BF92CF92DF92EF92FF924B015C01A7
:100A30000E94E5046B017C0124E0C21AD108E108A0
:100A4000F1080E94E5046C197D098E099F0968155B
:100A500079058A059B05A8F3FF90EF90DF90CF9072
:100A6000BF90AF909F908F900895FC019B012451FF
:100A70003109C90163E470E00E94F616E617F70732
:100A800058F0C90168E270E00E94F6166F5F7F4F70
:100A900081E06E177F0708F480E008952F923F925F
:100AA0004F925F926F927F928F929F92AF92BF927E
:100AB000CF92DF92EF92FF920F931F93CF93DF932A
:100AC000CDB7DEB72A970FB6F894DEBF0FBECDBF05
:100AD000282E69875A013A8329833E2C9A012C5E7D
:100AE0003F4FC90163E470E00E94F61678876F8378
:100AF000C90168E270E00E94F6169B012F5F3F4F2C
:100B00003E832D839985892F90E0880F991F0B963E
:100B10009A8789878091350490913604E985FA8512
:100B2000E80FF91FFA87E987412C512C32014394D1
:100B3000C12CD12C7601222009F442C029813A81AE
:100B4000E985FA85A216B306D1F40280F381E02D7F
:100B5000FC83EB83311017C0B8018B819C810E940C
:100B60003505811123C0440C551C661C771C2A9442
:100B700029853A852C5F3F4F3A872987DCCF8080D3
:100B80009180332049F0CC0CDD1CEE1CFF1C298128
:100B90003A81A216B30601F38F81988588169906CB
:100BA00010F3ED81FE81E815F905E8F2332019F024
:100BB0006894C0F8D8CFC428D528E628F728D3CF22
:100BC000C0921A04D0921B04E0921C04F0921D04FF
:100BD00081E02A960FB6F894DEBF0FBECDBFDF913D
:100BE000CF911F910F91FF90EF90DF90CF90BF902A
:100BF000AF909F908F907F906F905F904F903F90BD
:100C00002F900895EF920F931F93FC01862F642F6E
:100C1000EE24E3949785911101C0E12C01851285A2
:100C200023853485478150850E944E051F910F9181
:100C3000EF9008950F931F93CF93DF93EC01E09112
:100C40003504F0913604058516852B813C812C5E98
:100C50003F4FC90163E470E00E94F61606171707BC
:100C6000A0F0C90168E270E00E94F6166F5F7F4F46
:100C70006017710750F06D817E8187859089DF91C3
:100C8000CF911F910F910C94350580E0DF91CF91AA
:100C90001F910F910895CF93DF93EC0160E08E8157
:100CA0000E94480461E08E810E94480460E08E81C9
:100CB0000E9448048BE891E00197F1F7DF91CF9112
:100CC0000895CF92DF92EF92FF920F931F93CF93ED
:100CD000DF936C017C0187E0E80EF11CD0E0C0E0FE
:100CE000062F10E0B8010C2E02C0759567950A9486
:100CF000E2F76170F70181917F010E94480421961B
:100D0000C430D10579F7C601DF91CF911F910F91C2
:100D1000FF90EF90DF90CF900C944B06CF92DF9234
:100D2000EF92FF920F931F93CF93DF93EC01F62E78
:100D3000642F8C810E9448048D818F3F19F060E000
:100D40000E9448040F2D10E08F8584FF25C06E019E
:100D500087E0C80ED11CF12CE12CB8010E2C02C08A
:100D6000759567950A94E2F76170F60181916F01BC
:100D70000E944804FFEFEF1AFF0A88E0E816F1042A
:100D800061F7CE01DF91CF911F910F91FF90EF900E
:100D9000DF90CF900C944B06B80184E07595679571
:100DA0008A95E1F7CE010E9461066F2DCE01DF9199
:100DB000CF911F910F91FF90EF90DF90CF900C9407
:100DC000610640E0682F82E494E00C948E06E09186
:100DD0005504E23040F4E150F0E0EE5BFB4F8489D3
:100DE00080680C94E106E1E0F7CFCF93DF93823087
:100DF00029F4909151049860909351048093550484
:100E00001092560480E48093570480E18093580444
:100E100080E58093590461E0809146040E94940427
:100E2000809147048F3F19F061E00E94940461E0D3
:100E3000809148040E949404C2E4D4E09E012254AC
:100E400034408091510484FD0BC084E090E02196F1
:100E50002817390744F461E08E810E949404EECF94
:100E600088E090E0F4CF8BE39DE00197F1F760E03C
:100E7000809146040E94480460E0809148040E94EA
:100E80004804809147048F3F19F060E00E944804B5
:100E90008091510484FD39C063E082E494E00E94B3
:100EA0006106CBE4D6E4CE010197F1F763E082E47A
:100EB00094E00E9461062197F1F763E082E494E0F8
:100EC0000E94610683E592E00197F1F762E082E417
:100ED00094E00E9461068091510480620E94E106C4
:100EE00084E0809352048CE00E94E10681E00E943D
:100EF000E1068BE39FE10197F1F782E080935304D1
:100F000086E0DF91CF910C94E10680620E94E106B9
:100F10008BE496E40197F1F78091510480620E947E
:100F2000E10683E592E00197F1F780915104806238
:100F30000E94E106D0CF41E00E948E0681E090E061
:100F40000895EDE0F4E08AE190E09283818385E00A
:100F500090E09483838361E080810C949404809179
:100F60000B04882319F060E00C9448042D98089530
:100F7000882349F080910B04882319F061E00C94D8
:100F800048042D9A08950C94AF074F925F926F9288
:100F90007F928F929F92AF92BF92CF92DF92EF9209
:100FA000FF92CF93DF93CDB7DEB72D970FB6F894AE
:100FB000DEBF0FBECDBF7C010E94E50469837A834A
:100FC0008B839C834B015C011D86B0E0A0E0970100
:100FD000AD0125523109410951092D833E834F83CB
:100FE00058879701AD0127503109410951092987D7
:100FF0003A874B875C87F89461E080910D040E94EA
:10100000480480911004909111048230910538F0C9
:10101000880F991F880F991F05970197F1F760E0D6
:1010200080910D040E94480478943D85311107C0D9
:1010300080910C04823019F481E00E94B8078091FD
:101040000E0490910F04880E991EA11CB11CF894F7
:101050000E94E5042B013C016B0149815A81C41AAD
:10106000D50AF12CE12C8D819E81AF81B885C816FF
:10107000D906EA06FB0634F080910C04823011F4A4
:101080000E94AF0729853A854B855C85C216D30639
:10109000E406F506B4F078942D960FB6F894DEBF0A
:1010A0000FBECDBFDF91CF91FF90EF90DF90CF903B
:1010B000BF90AF909F908F907F906F905F904F9078
:1010C000089531E03D87481459046A047B0408F40C
:1010D000BFCF91CF0E94A10780E891E10E94C50790
:1010E00060E871E180E090E00E940E0580E392E00C
:1010F0000E94C50760E372E080E090E00E940E0568
:1011000080E392E00C94C5070E94A10780E093E27F
:101110000E94C50760EC78E080E090E00E940E0538
:1011200080E392E00C94C507FB0101900020E9F7F1
:101130003197AF01461B570BDC01ED91FC9102800A
:10114000F381E02D0994CF93DF930E940804EC0112
:101150006EE072E083E892E00E9494088C0F9D1F7D
:10116000DF91CF9108958F929F92AF92BF92EF92AD
:10117000FF920F931F93CF93DF93CDB7DEB7A19765
:101180000FB6F894DEBF0FBECDBF7C01FA01CB01D4
:1011900019A2223008F42AE08E010F5D1F4F822E23
:1011A000912CB12CA12CBF01A50194010E94BA166B
:1011B000F901CA016A300CF5605DD8016E938D01AA
:1011C000232B242B252B79F790E080E0109721F03A
:1011D000BD01C7010E949408A1960FB6F894DEBF26
:1011E0000FBECDBFDF91CF911F910F91FF90EF9078
:1011F000BF90AF909F908F900895695CDECFCF92A3
:10120000DF92EF92FF92CF93DF936C01990FEE087C
:10121000FF08F7FE19C08DE20E942304EC01442769
:101220005527BA014C195D096E097F092AE083E848
:1012300092E00E94B3088C0F9D1FDF91CF91FF9029
:10124000EF90DF90CF9008952AE0B701A60183E8E0
:1012500092E0DF91CF91FF90EF90DF90CF900C94D0
:10126000B3080C9494081F920F920FB60F9211249A
:101270002F933F934F935F936F937F938F939F939E
:10128000AF93BF93EF93FF9383E892E00E9499039B
:10129000FF91EF91BF91AF919F918F917F916F914E
:1012A0005F914F913F912F910F900FBE0F901F9024
:1012B00018951F920F920FB60F9211242F938F93B0
:1012C0009F93EF93FF93E0919302F09194028081BA
:1012D000E0919902F0919A0282FD1BC09081809169
:1012E0009C028F5F8F7320919D02821741F0E091E5
:1012F0009C02F0E0ED57FD4F958F80939C02FF918B
:10130000EF919F918F912F910F900FBE0F901F9093
:1013100018958081F4CF1F920F920FB60F9211246F
:101320002F933F938F939F93AF93BF9380916702C7
:1013300090916802A0916902B0916A0230916602B0
:1013400023E0230F2D3758F50196A11DB11D2093E1
:1013500066028093670290936802A0936902B0933B
:101360006A0280916B0290916C02A0916D02B09123
:101370006E020196A11DB11D80936B0290936C02C9
:10138000A0936D02B0936E02BF91AF919F918F9128
:101390003F912F910F900FBE0F901F90189526E848
:1013A000230F0296A11DB11DD2CF1F920F920FB62F
:1013B0000F9211242F933F934F935F936F937F93DB
:1013C0008F939F93AF93BF93CF93EF93FF93E0914E
:1013D0002203F0912303C08180912403C8238091CC
:1013E000250390912603019649F080912503909161
:1013F0002603019690932603809325038091200372
:1014000081111DC0C1116EC08091250390912603EA
:101410008D38910578F010922903809125039091E1
:10142000260390932C0380932B0381E080932A035F
:1014300080932003109226031092250353C08091BD
:1014400020038130A9F4CC2309F44CC0E0912A0395
:101450008E0F80932A038091250390912603F0E05C
:10146000EE0FFF1FE05EFC4F9487838782E0E0CFA2
:1014700080912003823009F04FC0C11122C0E09159
:101480002A0381E0E03768F08093290383E08093AA
:101490002003E0912703F0912803309759F2099532
:1014A000C9CF8E0F80932A03809125039091260344
:1014B000F0E0EE0FFF1FE05EFC4F9487838781E032
:1014C000B7CF80912503909126038D38910550F078
:1014D00083E080932003E0912703F0912803309765
:1014E00009F0099580910C04813021F4C11180E04C
:1014F0000E94B807FF91EF91CF91BF91AF919F915B
:101500008F917F916F915F914F913F912F910F90AC
:101510000FBE0F901F90189580912003833011F714
:10152000C111E0CF87CFEF92FF920F931F93CF931C
:10153000DF93EC01F62F8A01790190E080E030E042
:10154000E0E0DE01AE0FB11D2C91222341F0320FFD
:101550002E9F800D911D11241C92FE1315C0332364
:1015600099F0532F5695850F911D632F70E00E94BF
:10157000F616DE01A60FB11D3C93D8013C91311146
:101580000EC06C9390E080E0EF5FFE17D0F681E034
:10159000DF91CF911F910F91FF90EF900895D701A8
:1015A0003C91332371F380E0F3CFE3E8F2E0138260
:1015B000128288EE93E0A0E0B0E084839583A68356
:1015C000B78384EF91E09183808385EC90E09587E9
:1015D000848784EC90E09787868780EC90E0918BFD
:1015E000808B81EC90E0938B828B82EC90E0958BEA
:1015F000848B86EC90E0978B868B118E128E138EE7
:10160000148EE2E4F4E01382128286E092E0918389
:10161000808388E084838FEF858389E0868384E0FC
:10162000878385E0808786E0818787E082871386CD
:10163000148615861686178681E00E94F50680E2DC
:1016400093E0909336048093350480E00E94C504B3
:1016500010920B0410920D040895CF93DF93CDB731
:10166000DEB7E7970FB6F894DEBF0FBECDBF789414
:1016700084B5826084BD84B5816084BD85B5826097
:1016800085BD85B5816085BD80916E008160809348
:101690006E001092810080918100826080938100B1
:1016A00080918100816080938100809180008160C1
:1016B000809380008091B10084608093B10080911C
:1016C000B00081608093B00080917A008460809344
:1016D0007A0080917A00826080937A0080917A000B
:1016E000816080937A0080917A00806880937A008C
:1016F0001092C10061E083E10E94940461E081E105
:101700000E94940461E083E10E94480460E081E16A
:101710000E94480482E00E94F50661E172E082E4E2
:1017200094E00E9431090E94E70662E272E082E4DE
:1017300094E00E943109E0919302F091940212E04A
:101740001083E0918F02F09190021082E09191025B
:10175000F091920280E1808310929B02E0919702C7
:10176000F091980286E08083E0919502F0919602D4
:10177000808180618083E0919502F0919602808162
:1017800088608083E0919502F09196028081806864
:101790008083E0919502F091960280818F7D808315
:1017A0008EEC91E00E94A3088AEB91E00E94A308CE
:1017B00089EA91E00E94A3088AE891E00E94A308C8
:1017C00082E10E94C50410920B0480910C04816098
:1017D00080930C04259A1093B0001093B10084E616
:1017E0008093B3008093B4001092B20080912003E4
:1017F000833011F41092200384E080937000809174
:101800000B0490910C04916090930C04882309F4CC
:101810006AC061E00E9494049E012F5F3F4F39012E
:1018200080912003833011F00C9489158091290355
:10183000882309F45AC080E480933404109213047E
:1018400010921204109217041092160410921504AC
:101850001092140410921A0410921B0410921C048B
:1018600010921D04109233041092320480913404BB
:1018700086FDD0C1E0913504F09136042285822F97
:101880008F7B843009F0BDC0858596858658910987
:101890008C35910508F0B5C087859089243009F012
:1018A0004BC08197489708F0ACC08189928908970E
:1018B000089708F0A6C081E0809334048091390431
:1018C00090913A04909315048093140480913D0400
:1018D00090913E04909317048093160480913704EE
:1018E0009091380466C0259A97CF10923404809165
:1018F00012049091130490933804809337048091DC
:10190000160490911704B0E0A0E080933D049093FA
:101910003E04A0933F04B09340048091140490913E
:101920001504B0E0A0E08093390490933A04A093AA
:101930003B04B0933C0482CF825491098F9708F006
:1019400060C043E060E28CED91E00E9402068823D3
:1019500009F457C020911A0490911B0460911C0453
:1019600080911D04462F50E05093170440931604B5
:10197000422F592F4E3E37E8530701F523E030E060
:10198000309313042093120490E0909315048093F5
:10199000140480E290E090933304809332048AE749
:1019A00095E00E9486028091340480FF33C189E073
:1019B00090E090931304809312042CC19095291306
:1019C00010C030E03093150420931404982F9095A4
:1019D00069130CC088E090E0909313048093120484
:1019E000D8CF5093150440931404F0CF2AE030E090
:1019F0003093130420931204609316048093170409
:101A0000C8CFE0913504F09136048285843609F020
:101A10008FC088EC91E00E941A06882309F488C0E0
:101A200043E060E188EC91E00E940206882309F41B
:101A30007FC0F0901A040F2D10911B04BBE0CB2E39
:101A4000D12C023050E21507F9F0AEE0CA2ED12CAD
:101A50000A3A8AE51807C1F0FDE0CF2ED12C0435F3
:101A600092E3190789F0EFE0CE2ED12C0330E1E0AC
:101A70001E0751F080E1C82ED12C0332FBEC1F076A
:101A800019F07CE0C72ED12C43E260E288EC91E0B3
:101A90000E940206882309F44BC0F12680911A04A3
:101AA00090911B04A0911C04B0911D049C0164E062
:101AB000369527956A95E1F7309315042093140421
:101AC0002A2F30E03093170420931604382F3A273A
:101AD00039272F2D22952F702F252F70482F4F70CB
:101AE000241719F024E0209334042CE0C216D1040A
:101AF00049F4209134042061209334041093190494
:101B0000009318043B1729F080913404846080937B
:101B1000340480E390E09093330480933204D092B5
:101B20001304C09212048AE397E00E94860272C0F6
:101B3000E0913504F09136048285803209F0BBC013
:101B400041E06FE084EB91E00E940206882309F4F3
:101B5000B2C0E0913504F0913604DF01A75BBF4FBE
:101B60008D919C910497059708F0A5C080911A0467
:101B700090911B04A0911C04B0911D049C012F7135
:101B80003327309315042093140455E0B695A79598
:101B9000979587955A95D1F7492F43709C01332724
:101BA000309317042093160423853485253634405A
:101BB00008F079C0209141042F5F20934104223026
:101BC00018F021E02093340490FF14C020913404D5
:101BD000322F32603093340430913D0450913E04F2
:101BE0008095831719F026602093340430931604EF
:101BF000509317044150423008F05AC086E190E0FB
:101C000090931304809312048FE090E09093330438
:101C10008093320440911A0450911B0460911C047B
:101C200070911D044093790250937A0260937B0275
:101C300070937C028091750290917602A091770258
:101C4000B0917802481759076A077B0709F45BC708
:101C5000411551056105710509F455C74093750299
:101C600050937602609377027093780221E230E01D
:101C700080E090E0DC012150310909F4EBC5880FC8
:101C8000991FAA1FBB1F6A017B01F1E0CF22DD244F
:101C9000EE24FF248C299D29AE29BF2976956795CE
:101CA00057954795E8CF10924104423009F4A6CFEA
:101CB00084E090E0A5CF80EA91E00E941A06882394
:101CC00009F44EC0E0913504F091360482858A31E2
:101CD00029F08A3219F0803209F042C090E0BC014C
:101CE0006150710977FDBC017595679543E080EA05
:101CF00091E00E940206882399F180911A04909144
:101D00001B04A0911C04B0911D049C012F77332764
:101D1000309317042093160437E0B695A79597954E
:101D200087953A95D1F79093150480931404E09128
:101D30003504F0913604228530E0C901019797FD02
:101D4000C90195958795909333048093320487E178
:101D500090E0909313048093120480EE91E0E5CE1E
:101D600081E08093820289E793E0909380028093E0
:101D70007F02109281020E949502813009F066C0B4
:101D8000C12CD12C760110E0E0913504F09136049D
:101D90009285809182028917E0F40E949502082FB3
:101DA0000E94950201110BC0813009F04FC0CC0C8C
:101DB000DD1CEE1CFF1C6894C0F81F5FE5CF0130EE
:101DC00009F044C0811142C0CC0CDD1CEE1CFF1C8C
:101DD000F4CF812F90E09093330480933204C0922B
:101DE0001A04D0921B04E0921C04F0921D048C2D66
:101DF0008F7390E09093170480931604960116E079
:101E0000369527951A95E1F72F71332730931504EE
:101E100020931404960122273071232B31F4805C27
:101E20009F4F909317048093160480E880933404A6
:101E3000D3FE03C088E88093340481E190E090935E
:101E40001304809312048FEC99E06FCEE091350477
:101E5000F09136048585968588974D9708F046C0A1
:101E6000878590890C970B9708F040C083E080939A
:101E700082028CEB91E09093800280937F0210921B
:101E800081020E949502813089F50E94950281119C
:101E90002DC0C12CD12C760110E0E0913504F091D9
:101EA0003604928580918202891708F082C00E94D0
:101EB0009502B82E1330B1F00E949502082F13300E
:101EC00021F40E949502081311C091E0B91267C075
:101ED00001110CC0CC0CDD1CEE1CFF1C6894C0F87A
:101EE0001F5FDBCF0E949502B81631F3E0913504F5
:101EF000F091360422852C3311F0243099F4858535
:101F000096858638910570F0833E910508F497C058
:101F10008E58910968EB7BE007E010E0823691056E
:101F200008F491C0E0913504F09136048285823244
:101F300009F4EEC0843209F015C184E191E00E94F9
:101F40001A06882309F40EC143E060E184E191E0C0
:101F50000E940206882309F405C180911A04909119
:101F60001B04A0911C04B0911D04492F5A2F6B2F04
:101F700077275093170440931604992790931504DC
:101F80008093140480E190E09093330480933204B2
:101F9000E5E0F0E0F0931304E09312043BCEB110BF
:101FA000A5CF013009F0A2CFCC0CDD1CEE1CFF1C2C
:101FB00097CF812F90E09093330480933204C092A6
:101FC0001A04D0921B04E0921C04F0921D042C2DE4
:101FD00030E08D2D143200F580E880933404309386
:101FE0001704209316048D2D90E090931504809390
:101FF0001404E0FE03C088E880933404153128F00F
:102000008091340480618093340483E79AE00E94D5
:10201000860282E190E0CDCC90E890933404D7FE24
:1020200003C098E890933404309317042093160467
:102030008F7790E09093150480931404E6CF68E6C0
:1020400070E106E010E087859089243061F44D97B7
:10205000469708F067CF818992890797089708F01B
:1020600061CF81E829CC0E943505882309F45ACF35
:1020700043E06CE180E091E00E940206882309F4CD
:1020800051CF80E88093340480911A0490911B040E
:10209000A0911C04B0911D04AC01BD01E4E0769553
:1020A000679557954795EA95D1F79A01509317048C
:1020B00040931604AC01BD01F4E176956795579500
:1020C0004795FA95D1F7509315044093140444E0D2
:1020D00050E060E0722F7F70670F74E036952795AF
:1020E0007A95E1F741505109A9F786278F70992712
:1020F000AA27BB27892B8A2B8B2B19F084E8809386
:10210000340410931304009312048CE190E07ECD0C
:10211000838594858C3E9C4508F07CCD858596858D
:102120000897079708F076CDE35BFF4F8081918198
:102130000897079708F06ECD81E080933404809172
:10214000390490913A04909315048093140480917B
:102150003D0490913E04909317048093160485E00B
:1021600090E027CCE0913504F09136041285812F60
:102170008F7D843419F0163009F07EC088E291E03A
:102180000E941A06882309F477C01630B1F481E062
:10219000809334048091390490913A04909315040B
:1021A0008093140480913D0490913E049093170411
:1021B0008093160485E190E0FCCB43E060E288E286
:1021C00091E00E940206882309F456C010911C0475
:1021D00000911D0490911A0480911B0490931404A3
:1021E00080931504E0913504F0913604828584369D
:1021F00051F543E460E188E291E00E940206882301
:10220000D9F180911A0490911B040095101731F0B8
:102210009095981719F094E090933404982F812F9B
:10222000909317048093160480E390E09093330416
:102230008093320484E190E090931304809312041D
:102240008FE595E072CC802F809518130FC0812FF9
:1022500090E0909317048093160480E290E09093AE
:1022600033048093320483E190E0E6CFC801909379
:10227000160480931704F1CFE0913504F0913604F1
:102280008285843279F58CE391E00E941A068823D6
:1022900049F143E060E18CE391E00E94020688236B
:1022A00009F110911A0480911B048095181719F0F8
:1022B00084E0809334048DE692E00E948602812FB0
:1022C00090E09093170480931604109215041092D6
:1022D000140480E190E090933304809332048DE104
:1022E00090E067CBE0913504F09136048285843428
:1022F000D1F480E591E00E941A068823A1F043E022
:1023000060E280E591E00E940206882361F080E8A7
:102310008093340480E290E09093330480933204FD
:102320008CE190E046CB84E691E00E941A06E091B1
:102330003504F09136049285882309F455C094320F
:1023400009F052C043E060E184E691E00E94020699
:10235000882309F449C0E0913504F0913604DF0187
:10236000AF5ABF4F8D919C9102970497E8F580E892
:102370008093340430911A0420911B04832F922FF0
:10238000422F42954F702F70A4E096958795AA959D
:10239000E1F78F703F709FE09427922798273917B5
:1023A00019F094E89093340463857485683F714113
:1023B00028F4909134049260909334044093140470
:1023C0001092150450E1259F90011124282B309381
:1023D00017042093160480E190E0909333048093D7
:1023E00032048AE190E0E5CA88E791E00E941A068B
:1023F000E0913504F09136049285882381F194327E
:1024000071F543E060E188E791E00E9402068823CD
:1024100031F1E0913504F0913604EF5AFF4F80819D
:10242000918108970797D8F480911A0490911B0422
:1024300098279F3FA1F490E090931704809316048F
:1024400080E190E0909333048093320489E190E03E
:10245000909313048093120488ED94E066CBE0918E
:102460003504F09136048285803709F059C041E087
:1024700068E08CE891E00E940206882309F450C0CD
:1024800080911A0490911B04A0911C04B0911D042A
:10249000892B8A2B8B2B09F043C041E16FE18CE83B
:1024A00091E00E9402068823D9F1C0901A04D090CE
:1024B0001B04E0901C04F0901D044FE461E18CE8E3
:1024C00091E00E940206882359F190911B048091AB
:1024D0001C04892798278927909317048093160452
:1024E000C0921A04D0921B04E0921C04F0921D04C6
:1024F000D0921504C0921404F0921904E0921804CA
:102500008BE190E0909313048093120488E390E0B1
:10251000909333048093320480E8809334047ACB20
:10252000A0913504B09136041A968C911A97843193
:1025300008F429C182E3F30111928A95E9F71A960A
:102540002C911A972250330B60E043E0842F90E0E7
:1025500082179307BCF4880F991FFD01E80FF91F3C
:10256000838594858233910508F00DC1F301E80F4E
:10257000F91F50815F5F50836817190608F4682FB0
:102580004E5FE4CF1EAA1DAA9E012B5C3F4FAE01F9
:102590004A5C5F4FC3010E94930A882309F4F3C089
:1025A00082E3F30111928A95E9F7A0913504B09185
:1025B00036041A962C911A972250330B60E044E0AF
:1025C000842F90E082179307BCF4880F991FFD01B8
:1025D000E80FF91F838594858233910508F0D3C0F5
:1025E000F301E80FF91F50815F5F508368171906E8
:1025F00008F4682F4E5FE4CF1CAA1BAA9E012D5C35
:102600003F4FAE014C5C5F4FC3010E94930A882389
:1026100009F4B9C0E0913504F091360482858695BD
:102620008150990BCBA88DA89C0121503109CC2059
:1026300019F0811001C0C9019093330480933204D2
:102640009C012150310995E0369527959A95E1F73F
:102650002FAB811003C0CC2009F495C04CA892E3A5
:10266000499E20011124AEA8A99E50011124899EE3
:1026700040011124C99E60011124F82E83E0282E08
:10268000312C8F2DF0E2FF1508F480E29DA99923EB
:1026900009F465C021E030E0309313042093120464
:1026A000E12C82019501A401622D0E944E05882330
:1026B00009F469C024E0329EF0011124E65DFB4F6D
:1026C00080911A0490911B04A0911C04B0911D04E8
:1026D00080839183A283B38330E4230E339450EE3E
:1026E000F50E8FA9831568F680ED97E00E948602AB
:1026F000E0913504F09136044585568582E3849F48
:102700009001859F300D112430931F0420931E04E7
:1027100047855089849F9001859F300D1124309307
:10272000210420932004B0922704A0922604509202
:1027300029044092280481149104E1F0909223042A
:10274000809222045092250440922404C114D104A2
:1027500009F460CAD0922904C09228045BCAE2E05E
:10276000F0E0F0931304E0931204E12C860195014C
:10277000A5019ACFB0922304A0922204D0922504FE
:10278000C092240447CAA0903504B0903604F501E5
:102790008285863008F43ECA11E025EC3DE94CE123
:1027A00051E8C82ED12C0AE0812F90E0BC016E5F69
:1027B0007F4F6C157D05DCF5660F771FF501E60F81
:1027C000F71F63857485880F991FF501E80FF91FBE
:1027D00083859485069FD001079FB00D1124FC01CD
:1027E000EE0FFF1FEE0FFF1FEE0FFF1FAE17BF070D
:1027F000D0F0089FF001099FF00D1124CB01A3E058
:10280000880F991FAA95E1F7E817F90770F4E2E03D
:1028100063E971E080E091E00E94AA169B01AC019F
:102820002E271F5FC1CFE0E0F3CFE1E0F1CF20938F
:102830001A0430931B0440931C0450931D0480E23F
:1028400090E090933304809332041092130410921A
:102850001204E0C980936F0290937002A0937102FA
:10286000B09372024093790250937A0260937B0294
:1028700070937C0280917302909174020196909300
:1028800074028093730263E372E083E892E00E9433
:10289000310980917302909174020A9730F467E4D1
:1028A00072E083E892E00E94310980917302909176
:1028B00074020A978A35910530F468E472E083E87F
:1028C00092E00E94310980917302909174028456C3
:1028D00091098438934030F469E472E083E892E02F
:1028E0000E943109409173025091740270E060E0DF
:1028F0002AE083E892E00E94B30860E472E083E893
:1029000092E00E94310980916F0290917002A09133
:102910007102B09172020097A105B14030F468E4F1
:1029200072E083E892E00E94310980916F029091F9
:102930007002A0917102B09172020097A140B1059E
:1029400030F466E472E083E892E00E9431098091FD
:102950006F0290917002A0917102B09172028F3F4C
:102960009105A105B10509F030F464E472E083E853
:1029700092E00E94310940916F0250917002609183
:1029800071027091720220E183E892E00E94B30824
:102990006BE472E083E892E00E9431098091340494
:1029A00086FFEBC08AE794E00E94A308809112049E
:1029B00090911304009709F440C00397F4F5E09157
:1029C0003504F0913604838594858C329140A8F5C6
:1029D0006EE072E083E892E00E94940884E893E05D
:1029E0000E940804E0913504F09136042385348573
:1029F000A2E3B0E00E94E716AB01BC012AE083E845
:102A000092E00E94B3088AE393E00E94080488E9F8
:102A10009AE30E94FF088CEF92E00E94A3088BEAE1
:102A200092E00E94A30887E592E00E94A3086EE06E
:102A300072E083E892E00E9494080E94E70660E555
:102A400072E082E494E00E9431090E94E70661E6A8
:102A500072E082E494E00E94310940917302509147
:102A6000740270E060E02AE082E494E00E94B3081F
:102A700060E472E082E494E00E94310980916F0288
:102A800090917002A0917102B09172020097A1051D
:102A9000B14030F468E472E082E494E00E943109CD
:102AA00080916F0290917002A0917102B0917202B8
:102AB0000097A140B10530F466E472E082E494E04E
:102AC0000E94310980916F0290917002A091710271
:102AD000B09172028F3F9105A105B10509F030F464
:102AE00064E472E082E494E00E94310940916F0254
:102AF00050917002609171027091720220E182E443
:102B000094E00E94B30880912003833011F4109266
:102B100020030E94E5046B017C0184E6882E912C41
:102B2000A12CB12C0E94E5046C197D098E099F0926
:102B3000683E734081059105A8F331E0831A91083E
:102B4000A108B10858EEC50E53E0D51EE11CF11CDA
:102B500081149104A104B10429F780E090E0892B4D
:102B600011F40C94100C0E948503882311F40C942A
:102B7000100C0E9400000C94100C80E794E00E945E
:102B80000804E0911204F0911304EE0FFF1FEC5CB7
:102B9000FB4F859194910E940804809112049091BA
:102BA0001304009711F58BE294E00E940804409111
:102BB0001A0450911B0460911C0470911D0420E1C3
:102BC00083E892E00E94B30880E20E942304E0912F
:102BD0003504F0913604828590E0019696958795AC
:102BE0000E94FF0886E094E0DFCE0197029708F488
:102BF00041C08AEF93E00E94080440911404509170
:102C0000150470E060E020E183E892E00E94B308E0
:102C10008EEE93E00E940804409116045091170430
:102C200070E060E020E183E892E00E94B3088091C8
:102C3000340484FF0FC084EE93E00E9408044091A6
:102C400018045091190470E060E020E183E892E0FC
:102C50000E94B3088091340482FF04C087ED93E0A2
:102C60000E9408048091340483FF04C08DEC93E03B
:102C70000E94080480913404837041F180E20E9434
:102C800023048091340481FF04C087EC93E00E9408
:102C9000080480EC93E00E9408048AEB93E00E9411
:102CA0000804E0913504F091360423853485A2E3CD
:102CB000B0E00E94E716AB01BC012AE083E892E095
:102CC0000E94B30887EB93E00E94080480913404CB
:102CD00080FF0CC080911A0490911B04A0911C04E9
:102CE000B0911D04892B8A2B8B2B69F18AEA93E022
:102CF0000E94080440911A0450911B0460911C0426
:102D000070911D0420E183E892E00E94B30880E204
:102D10000E942304409132045091330470E060E03B
:102D20002AE083E892E00E94B30884EA93E00E94DC
:102D300008048091340487FF03C089E993E034CE0E
:102D40008EE893E031CE6EE072E083E892E00E947C
:102D500094082CCEDB018F939F930E94DC16BF91C9
:102D6000AF91A29F800D911DA39F900DB29F900DDA
:102D700011240895A1E21A2EAA1BBB1BFD010DC050
:102D8000AA1FBB1FEE1FFF1FA217B307E407F5071B
:102D900020F0A21BB30BE40BF50B661F771F881FF7
:102DA000991F1A9469F760957095809590959B018D
:102DB000AC01BD01CF0108950E94E716A59F900DBB
:102DC000B49F900DA49F800D911D11240895A29F82
:102DD000B001B39FC001A39F700D811D1124911DEF
:102DE000B29F700D811D1124911D0895AA1BBB1B5C
:102DF00051E107C0AA1FBB1FA617B70710F0A61BFB
:102E0000B70B881F991F5A95A9F780959095BC011B
:102E1000CD010895EE0FFF1F0590F491E02D099468
:042E2000F894FFCF54
:102E240006002628236810F4012C06F401260280EB
:102E34006E008408050026E02070100E022A060E9B
:102E4400020E0200410000001300268011801130A0
:102E540002900630023002006E006A081D00263817
:102E6400081C040E022A060E020E020032000000A4
:102E74001C0026220B220BEE026608EE02EE0280F4
:102E84006E0000001A00269E0002049E0029029E85
:102E9400000701006E000000190026F603BC0508B7
:102EA40002BC050802D401004B0000001B00261FD1
:102EB400015D033E023E021F015D03806E000000BF
:102EC40017002860095802B004580258025802003A
:102ED4002D00000004002604010C0304011C070457
:102EE400010C03006E0000000C0025800DC006B02C
:102EF400011005B001B001008200000008002600A6
:102F04002380113002900630023002006E008408E3
:102F140000000000BB031B03480328047903570384
:102F24006B03000000009B071B030B050A050D0A39
:102F340000497252656D6F7465206465636F6465E2
:102F440072004E454333384B20207869616F6C61C1
:102F540062610023646566696E65206B65795F0054
:102F64002030780030303030303000202F2F2000D7
:102F7400202020202020202020202020202020204D
:062F8400006B65790000FE
:00000001FF
